:060000000A128A110E280D
:10000800FE00030EF8000408F9000A08FA000A12B4
:100018008A11E2290A128A111128FB01FC01FD014B
:1000280083120313B00183010A128A11252AF200F0
:100038007208F0007008F30071283F30F000700873
:10004800F400AB280630F0007008F400AB285B30F1
:10005800F0007008F400AB284F30F0007008F4008E
:10006800AB286630F0007008F400AB286D30F00063
:100078007008F400AB287D30F0007008F400AB285D
:100088000730F0007008F400AB287F30F0007008EB
:10009800F400AB286F30F0007008F400AB2877301C
:1000A800F0007008F400AB287C30F0007008F40011
:1000B800AB283930F0007008F400AB285E30F0004F
:1000C8007008F400AB287930F0007008F400AB2811
:1000D8007130F0007008F400AB287308F000F101EB
:1000E8007108003A03197928AB287008003A0319F7
:1000F8002128013A03192628033A03192B28013A23
:1001080003193028073A03193528013A03193A2800
:10011800033A03193F28013A031944280F3A0319EF
:100128004928013A03194E28033A03195328013A7A
:1001380003195828073A03195D28013A0319622858
:10014800033A03196728013A03196C28AB28740885
:10015800080083120313A601A11FB328B428BB28E3
:10016800A009A109A00A0319A10AA601A60AA31FAA
:10017800BE28BF28C828A209A309A20A0319A30AEE
:100188000130A4002408A606A701A801200821041C
:100198000319CF28D0280729A501A50ADE28013090
:1001A8000310A00DA10DFF3E031DD4280130A400AB
:1001B8002408A507A11FE128E228D328013003104D
:1001C800A70DA80DFF3E031DE32821082302031DE8
:1001D800EF2820082202031CF228F328FA28200816
:1001E800A2022108031CA303A30227140130031051
:1001F800A10CA00CFF3E031DFB280130A502031D26
:1002080006290729E228260803190B290C29112990
:10021800A709A809A70A0319A80A2808A1002708F6
:10022800A0000800831203130708A9002908AB00DF
:100238006430A0000030A1002B08A200A301A21B7B
:10024800A3030A128A11AD200A128A11831203131A
:100258002008A9002908AC009C30A9002908A000A2
:100268002C080A128A110E220A128A118312031309
:100278002B07AA002A08AB000A30A0000030A10012
:100288002B08A200A301A21BA3030A128A11AD2006
:100298000A128A11831203132008A9002908AD0045
:1002A800F630A9002908A0002D080A128A110E228A
:1002B8000A128A11831203132B07AA002A08AE0018
:1002C80008008312031389010130F5007508FD0742
:1002D800A1298801013089002C080A128A111B20E3
:1002E8000A128A11F5007508FC007C0883120313B2
:1002F8008800B3298801023089002D080A128A1162
:100308001B200A128A11F5007508FB007B0883126E
:1003180003138800B3298801043089002E080A12C3
:100328008A111B200A128A11F5007508831203131B
:10033800B00030088800FD01B3297D08F500F601FA
:10034800F51BF6037608003A0319AB298F297508BF
:10035800013A03196D29033A03197E298F290800E8
:10036800F83083120313A0002008AF008316031788
:100378008801890183160313870185018901880192
:1003880083120313870185018801890103308316CD
:10039800031386008113151495148B178B158B1670
:1003A800161496140B100B1181128111011581146A
:1003B8000114831203132F08810008000B1CE52980
:1003C800E629F72983120313061CEB29EC29EE29E9
:1003D80001308502861CF129F229F6290130F7003F
:1003E800770885070B100B1DFA29FB29052A0A1225
:1003F8008A1165210A128A11831203132F088100BA
:100408000B117A088A0079088400780E8300FE0EA2
:100418007E0E090083120313A300A201231C152AD0
:10042800162A1A2A2008A1002108A2070310A00DE5
:100438000310A30C2308031D222A232A122A2208A8
:1004480008000A128A11B4210A128A110A128A11A2
:1004580016210A128A1171308312031387002A2A7F
:060468000A128A110E28A1
:08400000FF3FFF3FFF3FFF3FC0
:04400E00D420FF3F7C
:00000001FF
